:100000000C9463000C948B000C948B000C948B006C
:100010000C948B000C948B000C948B000C948B0034
:100020000C948B000C948B000C948B000C948B0024
:100030000C948B000C948B000C948B000C948B0014
:100040000C9461050C948B000C946E030C948B0043
:100050000C948B000C948B000C948B000C948B00F4
:100060000C948B000C948B000000000024002700EF
:100070002A0000000000250028002B0000000000DE
:1000800023002600290004040404040404040202DA
:100090000202020203030303030301020408102007
:1000A0004080010204081020010204081020000012
:1000B0000007000201000003040600000000000029
:1000C00000004502270411241FBECFEFD8E0DEBF99
:1000D000CDBF11E0A0E0B1E0E2E5FFE002C0059095
:1000E0000D92AE30B107D9F711E0AEE0B1E001C03A
:1000F0001D92A23CB107E1F710E0C6ECD0E004C0CD
:100100002297FE010E94A307C23CD107C9F70E94B3
:1001100067030C94A7070C9400000F931F938B01A7
:1001200061E0802F86D560E0802FA3D51F910F91CD
:1001300008950F931F938B0160E0802F7AD561E0C3
:10014000802F97D51F910F910895FF920F931F93C2
:10015000CF93DF93EC0168817981EBDF6A817B814A
:10016000CE01E7DF82E390E01CD58881CFD50197EF
:10017000E1F385E090E015D58881C8D5892BE1F3BE
:10018000FF2400E011E08881C1D50197E1F38A8165
:10019000BDD5019709F4F12A8881B8D5892BE1F3FF
:1001A0000F5F083010F4110FEECF8881AFD50197A3
:1001B000E1F38881ABD5892BE1F38881A7D501973D
:1001C000E1F38881A3D5892BE1F368817981CE01A0
:1001D000A4DF8F2D9927DF91CF911F910F91FF9071
:1001E0000895FF920F931F93CF93DF93EC01162F87
:1001F0006A817B819EDF68817981CE019ADF8CE202
:1002000091E0CFD468817981CE0187DF8CE291E0E3
:10021000C8D46A817B81CE0180DF8AE090E0C1D4BE
:1002200068817981CE0185DF888170D50197E1F3FE
:1002300000E081E0F82E6A817B8110FF03C0CE01CF
:1002400078DF02C0CE0169DF888160D5892BE1F3B8
:1002500088815CD50197E1F3812F81708F250F5F35
:10026000083019F0F82E1695E6CF6A817B81882335
:1002700019F0CE015EDF02C0CE014FDF888146D586
:10028000892BE1F3888142D50197E1F36A817B8173
:10029000CE014FDF82E390E084D4888137D5019787
:1002A000E1F3888133D5892BE1F38A812FD5892B1E
:1002B000C1F368817981CE0130DFDF91CF911F9149
:1002C0000F91FF9008950F931F938C01FC01718390
:1002D0006083538342832DDFF80162817381C801FB
:1002E00028DF1F910F9108950F931F938C01FC013C
:1002F00071836083538342831CDFF80162817381C1
:10030000C80117DF1F910F910895FC0110828FEF34
:1003100081830895EF92FF920F931F93CF93DF9302
:10032000EC019B0177FF03C020E030E005C0653B96
:10033000710514F024EB30E02983EA806B8170E0D2
:100340006E197109882777FD8095982F982F872F30
:10035000762F662730E040E050E00E941E0724EB35
:1003600030E040E050E00E947207FF2400E010E01F
:10037000102F0F2DFE2CEE24E20EF31E041F151F6E
:10038000C801B70128E030E040E050E00E94720769
:100390008881893029F4309389002093880006C031
:1003A0008A3021F430938B0020938A00DF91CF9123
:1003B0001F910F91FF90EF900895CF93DF93EC0181
:1003C000FB01CB010997029710F080E054C0CA01ED
:1003D00060E170E00E943D076A83C90160E170E05E
:1003E0000E943D076B83E8838FEF89838E2F60E047
:1003F0000E943906888161E00E94190680910E01F1
:10040000882311F580910F018823F1F42FB7F89418
:1004100082E0809380008AE18093810088EB9BE0FA
:10042000909389008093880090938B0080938A003A
:1004300080E49CE9909387008093860080916F0010
:10044000887F80936F002FBF8881893041F481E0DD
:1004500080930E01809180008F73806809C08A307C
:1004600049F481E080930F01809180008F7C80624D
:100470008093800081E0DF91CF91089540E252E0C7
:1004800020E639E00E94DD01089580E191E066E018
:1004900070E045E050E00E94630184E191E00E9439
:1004A000850188E191E00E94850108952F923F9295
:1004B0004F925F926F927F928F929F92AF92BF9274
:1004C000CF92DF92EF92FF920F931F93B0E1CB2E6A
:1004D000B1E0DB2EC6016BEE0E94F100C6010E9466
:1004E000A500C6010E94A500282EC6010E94A500F5
:1004F000E82EC6010E94A500FF24E7FCF09420919D
:100500001C0130911D01E20EF31EF0921D01E092DC
:100510001C01992787FD909520911E0130911F01A4
:10052000280F391F30931F0120931E0100D000D0E7
:100530000027F7FC0095102FA3EB6A2E712C812C5D
:10054000912CEDB7FEB76182728283829482C801DA
:10055000B70122E330E040E050E0FEECEF2EFFEF89
:10056000FF2EFFEF0F2FFFEF1F2FAA24BB246501E3
:100570000E94D5069B01AC010F900F900F900F9039
:1005800084E191E0B9010E948A0100D000D060911D
:100590001E0170911F01882777FD8095982FEDB778
:1005A000FEB7618272828382948222E330E040E06F
:1005B00050E0ECE3AE2EB12CC12CD12C0E94D5061C
:1005C0009B01AC010F900F900F900F9088E191E08C
:1005D000B9010E948A0104EA11E0332427FC309417
:1005E000432C532CC801B201A10122E030E00E944B
:1005F0004C05C80160E071E00E945E0440911C015E
:1006000050911D01662757FD6095762FC8012AE09D
:1006100030E00E944C05C80164E071E00E945E0475
:1006200040911E0150911F01662757FD6095762F5E
:10063000C8012AE030E00E944C05C8010E947604FF
:100640001F910F91FF90EF90DF90CF90BF90AF90F0
:100650009F908F907F906F905F904F903F902F90E2
:1006600008950F931F9300E111E0C8016FEF0E94FE
:10067000F100C8010E94A500C8010E94A500C801A0
:100680000E94A500C80160EF0E94F100C8010E940D
:10069000A50084E690E00E94D1051F910F91089576
:1006A00084EA91E040E855E260E070E00E94AB032C
:1006B0000E94310384E191E069E070E00E943E0213
:1006C00088E191E06AE070E00E943E0208950E9495
:1006D000DF050E9450030E945602FDCF1F920F9229
:1006E0000FB60F9211242F933F934F935F936F9305
:1006F0007F938F939F93AF93BF93EF93FF9340911B
:10070000C600E091A001F091A101CF01019660E83F
:1007100070E00E943D079C018091A2019091A3018D
:100720002817390739F0E05EFE4F40833093A1016E
:100730002093A001FF91EF91BF91AF919F918F9175
:100740007F916F915F914F913F912F910F900FBECD
:100750000F901F901895AF92BF92CF92DF92EF92B9
:10076000FF920F931F93CF93DF936C017A018B015C
:10077000DC011496AD90BC901597CB01BA0122E034
:1007800030E040E050E00E947207205C3D4B404F5B
:100790005F4FCA01B901A80197010E947207C90100
:1007A000DA010197A109B109292F3A2F4B2F5527BB
:1007B00047FD5A950196A11DB11DE5012883E6016B
:1007C000EE81FF8181508083EA85FB85208141E0B5
:1007D00050E0CA010E8402C0880F991F0A94E2F704
:1007E000282B2083EA85FB852081CA010F8402C063
:1007F000880F991F0A94E2F7282B2083EA85FB854E
:100800008081088802C0440F551F0A94E2F7842BA8
:100810008083DF91CF911F910F91FF90EF90DF9038
:10082000CF90BF90AF900895FC01A085B18521893C
:100830008C9190E0022E02C0959587950A94E2F77C
:1008400080FFF6CF0484F585E02D608308958CE069
:1008500091E09093A5018093A40180E291E09093B0
:10086000A7018093A60185EC90E09093A901809365
:10087000A80184EC90E09093AB018093AA0180ECF6
:1008800090E09093AD018093AC0181EC90E0909367
:10089000AF018093AE0186EC90E09093B10180931C
:1008A000B00184E08093B20183E08093B30187E0DC
:1008B0008093B40185E08093B50108950F931F9351
:1008C000CF93DF938C01EB0109C02196D801ED9104
:1008D000FC910190F081E02DC801099568816623A3
:1008E000A1F7DF91CF911F910F9108950F931F935F
:1008F0008C01DC01ED91FC910190F081E02D6DE027
:100900000995D801ED91FC910190F081E02DC8018D
:100910006AE009951F910F9108952F923F924F928F
:100920005F926F927F928F929F92AF92BF92CF927F
:10093000DF92EF92FF920F931F93DF93CF93CDB788
:10094000DEB7A0970FB6F894DEBF0FBECDBF1C0177
:100950006A017B01411551056105710549F4DC010E
:10096000ED91FC910190F081E02D60E3099554C078
:10097000882499245401422E55246624772401E0CA
:1009800010E00C0F1D1F080D191DC701B601A301B2
:1009900092010E945007F80160830894811C911C09
:1009A000A11CB11CC701B601A30192010E9450070E
:1009B000C901DA016C017D01C114D104E104F10423
:1009C000F1F681E0E82EF12CEC0EFD1EE80CF91C8E
:1009D0003E010894611C711CD501C4010197A10955
:1009E000B1096C01C818D90814C0F601EE0DFF1D3D
:1009F00060816A3010F4605D01C0695CD101ED91E5
:100A0000FC910190F081E02DC10109950894E10865
:100A1000F1086E147F0449F7A0960FB6F894DEBF74
:100A20000FBECDBFCF91DF911F910F91FF90EF903F
:100A3000DF90CF90BF90AF909F908F907F906F90FE
:100A40005F904F903F902F900895EF92FF920F93F9
:100A50001F93CF93DF93EC017A018B0177FF0FC0D7
:100A6000E881F9810190F081E02D6DE20995109502
:100A70000095F094E094E11CF11C011D111DCE01C4
:100A8000B801A7012AE00E948D04DF91CF911F9148
:100A90000F91FF90EF900895DC012115310541F48D
:100AA000ED91FC910190F081E02D642F099508955E
:100AB0002A30310519F40E94250508950E948D04FD
:100AC00008951F920F920FB60F9211242F938F93B8
:100AD0009F93AF93BF938091B6019091B701A0917E
:100AE000B801B091B9010196A11DB11D8093B60165
:100AF0009093B701A093B801B093B9018091BA0166
:100B00009091BB01A091BC01B091BD018050904C6F
:100B1000AF4FBF4F8093BA019093BB01A093BC012C
:100B2000B093BD0127C08091BA019091BB01A09103
:100B3000BC01B091BD0180589E43A040B04080935D
:100B4000BA019093BB01A093BC01B093BD01809109
:100B5000BE019091BF01A091C001B091C101019669
:100B6000A11DB11D8093BE019093BF01A093C00150
:100B7000B093C1018091BA019091BB01A091BC01D9
:100B8000B091BD0181589E43A040B04060F6BF9136
:100B9000AF919F918F912F910F900FBE0F901F904B
:100BA0001895019759F0FC01EE0FFF1FEE0FFF1F84
:100BB00032978FB7F8943197F1F78FBF08957894F3
:100BC00084B5826084BD84B5816084BD85B5826052
:100BD00085BD85B5816085BDEEE6F0E080818160F0
:100BE0008083E1E8F0E080818260808380818160A1
:100BF0008083E0E8F0E0808181608083E1EBF0E0D9
:100C0000808184608083E0EBF0E08081816080837C
:100C1000EAE7F0E080818460808380818260808365
:100C20008081816080838081806880831092C10090
:100C30000895282F30E0C90186569F4FFC019491FA
:100C40002A573F4FF9018491882391F0E82FF0E073
:100C5000EE0FFF1FE859FF4FA591B491662329F4C9
:100C60008C91909589238C9308958C91892B8C93EA
:100C70000895482F50E0CA0182559F4FFC012491EE
:100C8000CA0186569F4FFC0194914A575F4FFA0163
:100C900034913323D1F1222331F1233021F4809197
:100CA00080008F7705C0243031F4809180008F7DE3
:100CB0008093800018C0213019F484B58F7704C068
:100CC000223021F484B58F7D84BD0DC0263021F4FF
:100CD0008091B0008F7705C0273029F48091B00053
:100CE0008F7D8093B000E32FF0E0EE0FFF1FEE58F2
:100CF000FF4FA591B491662329F48C919095892397
:100D00008C9308958C91892B8C930895682F70E0B3
:100D1000CB0182559F4FFC012491CB0186569F4FFA
:100D2000FC0144916A577F4FFB019491992319F478
:100D300020E030E038C0222331F1233021F48091CB
:100D400080008F7705C0243031F4809180008F7D42
:100D50008093800018C0213019F484B58F7704C0C7
:100D6000223021F484B58F7D84BD0DC0263021F45E
:100D70008091B0008F7705C0273029F48091B000B2
:100D80008F7D8093B000892F90E0880F991F845841
:100D90009F4FFC01A591B4918C9120E030E0842319
:100DA00011F021E030E0C90108952F923F924F9257
:100DB0005F926F927F928F929F92AF92BF92CF92EB
:100DC000DF92EF92FF920F931F93DF93CF93CDB7F4
:100DD000DEB73B014C0119012A016D897E898F899B
:100DE000988D6A197B098C099D09621A730A840A15
:100DF000950AA40193010E941E07E218F308040952
:100E00001509A80197010E9472072A0D3B1D4C1D70
:100E10005D1DB901CA01CF91DF911F910F91FF9024
:100E2000EF90DF90CF90BF90AF909F908F907F908A
:100E30006F905F904F903F902F900895629FD001E8
:100E4000739FF001829FE00DF11D649FE00DF11D85
:100E5000929FF00D839FF00D749FF00D659FF00D34
:100E60009927729FB00DE11DF91F639FB00DE11D21
:100E7000F91FBD01CF011124089597FB092E072604
:100E80000AD077FD04D049D006D000201AF470951E
:100E900061957F4F0895F6F7909581959F4F08953E
:100EA000A1E21A2EAA1BBB1BFD010DC0AA1FBB1F6E
:100EB000EE1FFF1FA217B307E407F50720F0A21BE0
:100EC000B30BE40BF50B661F771F881F991F1A944D
:100ED00069F760957095809590959B01AC01BD0177
:100EE000CF01089597FB092E05260ED057FD04D09B
:100EF000D7DF0AD0001C38F45095409530952195E5
:100F00003F4F4F4F5F4F0895F6F79095809570953E
:100F100061957F4F8F4F9F4F0895AA1BBB1B51E1D7
:100F200007C0AA1FBB1FA617B70710F0A61BB70B59
:100F3000881F991F5A95A9F780959095BC01CD01FE
:100F40000895EE0FFF1F0590F491E02D0994F89499
:020F5000FFCFD1
:0E0F520009583D0009593D000000000014043C
:00000001FF
